:100000000C9434000C9451000C9451000C94510049
:100010000C9451000C9451000C9451000C9451001C
:100020000C9451000C9451000C9451000C9451000C
:100030000C9451000C9451000C9451000C945100FC
:100040000C9451000C9451000C9451000C945100EC
:100050000C9451000C9451000C9451000C945100DC
:100060000C9451000C94510011241FBECFEFD8E026
:10007000DEBFCDBF11E0A0E0B1E0EAE5FAE002C0EA
:1000800005900D92A231B107D9F721E0A2E1B1E0CC
:1000900001C01D92A831B207E1F70E9400020C9442
:1000A0002B050C9400004F925F926F927F928F927B
:1000B0009F92AF92BF92CF92DF92EF92FF920F93F7
:1000C0001F93CF93DF9300D000D01F92CDB7DEB740
:1000D000982FFA0129018FB7923008F09DC0208136
:1000E000102F109521232083DB012C9121232C93A9
:1000F0002081202B2083913029F4B6EABA95F1F7BC
:1001000000C006C0A3E9B1E11197F1F700C00000FB
:10011000F894208121232083B7E1BA95F1F70000FC
:10012000D2012C91202311F08FBF7AC0BAE1BA9589
:10013000F1F700C0D2012C9120238FBF222309F4B4
:100140006FC0BDE0BA95F1F700009E012F5F3F4FF1
:100150005E0186E0A80EB11C9FB6F89480818123D1
:100160008083DB018C9181238C9348E050E0A0E8F0
:100170007A2E812C8EE3D2016C90602221F4815082
:1001800069F00000F8CFBAE0BA95F1F7D2018C918E
:10019000802309F087288EE3682E06C09FBE40C0EA
:1001A0006A946620D9F30000D2018C918023C1F7B4
:1001B000769441505109F1F6D9018D929D019FBE6F
:1001C000AA16BB0649F649812A81240F3B81230FD9
:1001D0005C81250F5D81251321C0913071F4298147
:1001E0003A81322723273227F601318320832B815E
:1001F0003C813227232732270BC0BAE04B9FA00156
:100200001124F60151834083FAE03F9F90011124AD
:10021000D7012D933C9305C083E003C082E001C069
:1002200081E00F900F900F900F900F90DF91CF9182
:100230001F910F91FF90EF90DF90CF90BF90AF9004
:100240009F908F907F906F905F904F9008950F9345
:10025000CF93DF93FA01D9014FB7823040F5308157
:10026000902F909539233083EB01388139233883DF
:100270003081302B3083813029F4D6EADA95F1F7DA
:1002800000C006C0C3E9D1E12197F1F700C000002A
:10029000F894808198239083D7E1DA95F1F70000F4
:1002A0008C9180234FBF882319F081E001C083E047
:1002B000DF91CF910F910895611102C02D9801C077
:1002C0002D9A95B1907F282F22952F70922B95B95A
:1002D00095E09A95F1F700002C9A95E09A95F1F740
:1002E00000002C9890EF9A95F1F795B1907F282F08
:1002F0002F70922B95B995E09A95F1F700002C9A02
:1003000095E09A95F1F700002C9890EF9A95F1F707
:10031000611108C0843030F48FE39FE10197F1F759
:1003200000C0000008952D982C982FEF89EF90E0E1
:10033000215080409040E1F700C0000085B1807FEF
:10034000836085B925E02A95F1F700002C9A85E0B5
:100350008A95F1F700002C9890EF9A95F1F78FE1CC
:100360009EE40197F1F700C0000095E09A95F1F73F
:1003700000002C9A25E02A95F1F700002C9880EFD8
:100380008A95F1F78FE193E00197F1F700C0000043
:1003900095E09A95F1F700002C9A25E02A95F1F75F
:1003A00000002C9880EF8A95F1F785B1807F8260FC
:1003B00085B995E09A95F1F700002C9A25E02A95E9
:1003C000F1F700002C9880EF8A95F1F760E088E261
:1003D0000E945C0160E088E00E945C0160E081E0D6
:1003E0000E945C0160E08CE00E945C0160E080E8BB
:1003F0000C945C0161E00E945C0180E090E0089553
:10040000CF93DF9300D000D0CDB7DEB78FEF84B9A4
:100410000E94930180E091E0909315018093140174
:1004200060E080E80E945C018EE0A82E81E0B82E9A
:1004300001E026E230E047E250E068E270E080E070
:100440000E9427012FEF87EA91E6215080409040DB
:10045000E1F700C00000CE0101966C0102967C011C
:1004600026E230E047E250E068E270E080E00E947F
:1004700053001F928F93BF92AF920E944D029FEF45
:1004800023ED80E3915020408040E1F700C0000060
:100490000F900F900F900F90CBCFA0E0B0E0E3E56E
:1004A000F2E00C940405AE014B5F5F4FFA016191DD
:1004B0007191AF0180911401909115010E94630226
:1004C000E2E00C942005ABE0B0E0E9E6F2E00C9449
:1004D000F4046C017B018A01FC011782168283817E
:1004E00081FFCCC1CE0101963C01F6019381F70159
:1004F00093FD859193FF81917F01882309F4BAC10F
:10050000853239F493FD859193FF81917F01853286
:1005100029F4B60190E00E945A04E7CF912C212CD7
:10052000312CFFE1F315D8F08B3279F038F48032BA
:1005300079F08332A1F4232D20611DC08D3261F04A
:10054000803369F4232D216016C0832D8260382EFC
:10055000E32DE4603E2E2AC0F32DF8601DC037FC69
:100560002DC020ED280F2A3040F08E32B9F436FC31
:1005700081C1232D2064322E19C036FE06C08AE0C8
:10058000989E200D1124922E11C0EAE02E9E200D7F
:100590001124222EF32DF0623F2E08C08C3621F458
:1005A000832D8068382E02C0883641F4F70193FD10
:1005B000859193FF81917F018111B3CF982F9F7D0A
:1005C0009554933028F40C5F1F4F9FE399830DC01F
:1005D000833631F0833771F0833509F059C021C07B
:1005E000F801808189830E5F1F4F88248394912CAA
:1005F000530113C02801F2E04F0E511CF801A080F6
:10060000B18036FE03C0692D70E002C06FEF7FEF4E
:10061000C5010E944F044C018201F32DFF773F2E4C
:1006200016C0280122E0420E511CF801A080B180C2
:1006300036FE03C0692D70E002C06FEF7FEFC50189
:100640000E9444044C01F32DF0683F2E820133FCDC
:100650001BC0822D90E088169906B0F4B60180E2A6
:1006600090E00E945A042A94F4CFF50137FC85915A
:1006700037FE81915F01B60190E00E945A0421107B
:100680002A9421E0821A91088114910471F7E8C03C
:10069000843611F0893641F5F80137FE07C06081D4
:1006A0007181828193810C5F1F4F08C060817181CD
:1006B000072E000C880B990B0E5F1F4FF32DFF7652
:1006C0003F2E97FF09C090958095709561957F4F5B
:1006D0008F4F9F4FF0683F2E2AE030E0A3010E9429
:1006E0009604882E861845C0853731F4232D2F7E39
:1006F000B22E2AE030E025C0932D997FB92E8F3697
:10070000C1F018F4883579F0B5C0803719F0883712
:1007100021F0B0C0E92FE061BE2EB4FE0DC0FB2D6C
:10072000F460BF2E09C034FE0AC0292F2660B22E05
:1007300006C028E030E005C020E130E002C020E142
:1007400032E0F801B7FE07C0608171818281938138
:100750000C5F1F4F06C06081718180E090E00E5FEA
:100760001F4FA3010E949604882E8618FB2DFF7749
:100770003F2E36FE0DC0232D2E7FA22E891458F455
:1007800034FE0BC032FC09C0832D8E7EA82E05C01E
:10079000B82CA32C03C0B82C01C0B92CA4FE0FC0E8
:1007A000FE01E80DF11D8081803321F49A2D997EA0
:1007B000A92E09C0A2FE06C0B394B39404C08A2D2A
:1007C000867809F0B394A3FC11C0A0FE06C0B21451
:1007D00088F4280C922C9B180EC0B21460F4B60159
:1007E00080E290E00E945A04B394F7CFB21418F458
:1007F0002B1802C0982C212CA4FE10C0B60180E357
:1008000090E00E945A04A2FE17C0A1FC03C088E732
:1008100090E002C088E590E0B6010CC08A2D867891
:1008200059F0A1FE02C08BE201C080E2A7FC8DE27C
:10083000B60190E00E945A04891438F4B60180E3AE
:1008400090E00E945A049A94F7CF8A94F301E80D3D
:10085000F11D8081B60190E00E945A048110F5CF0D
:10086000222009F442CEB60180E290E00E945A04B0
:100870002A94F6CFF6018681978102C08FEF9FEF11
:100880002B96E2E10C941005FC010590615070403C
:100890000110D8F7809590958E0F9F1F0895FC0149
:1008A0006150704001900110D8F7809590958E0F9F
:1008B0009F1F08950F931F93CF93DF93FB01238115
:1008C00021FD03C08FEF9FEF2CC022FF16C0468191
:1008D0005781248135814217530744F4A081B181A7
:1008E0009D012F5F3F4F318320838C932681378179
:1008F0002F5F3F4F3783268314C08B01EC01FB0130
:100900000084F185E02D0995892BE1F6D801169632
:100910008D919C911797019617969C938E9316979D
:10092000CE01DF91CF911F910F910895FA01AA276F
:10093000283051F1203181F1E8946F936E7F6E5F22
:100940007F4F8F4F9F4FAF4FB1E03ED0B4E03CD0D0
:10095000670F781F891F9A1FA11D680F791F8A1FB3
:10096000911DA11D6A0F711D811D911DA11D20D01A
:1009700009F468943F912AE0269F11243019305DD4
:100980003193DEF6CF010895462F4770405D4193C5
:10099000B3E00FD0C9F7F6CF462F4F70405D4A3312
:1009A00018F0495D31FD4052419302D0A9F7EACFDA
:1009B000B4E0A6959795879577956795BA95C9F709
:1009C00000976105710508959B01AC010A2E0694FC
:1009D0005795479537952795BA95C9F7620F731FB5
:1009E000841F951FA01D08952F923F924F925F92F2
:1009F0006F927F928F929F92AF92BF92CF92DF922F
:100A0000EF92FF920F931F93CF93DF93CDB7DEB793
:100A1000CA1BDB0B0FB6F894DEBF0FBECDBF099427
:100A20002A88398848885F846E847D848C849B847E
:100A3000AA84B984C884DF80EE80FD800C811B818C
:100A4000AA81B981CE0FD11D0FB6F894DEBF0FBEBB
:0A0A5000CDBFED010895F894FFCF2B
:100A5A000000000200000000FA0100000000256406
:020A6A0000008A
:00000001FF
