:100000000C9434000C9451000C9451000C94510049
:100010000C9451000C9451000C9451000C9451001C
:100020000C9451000C9451000C9451000C9451000C
:100030000C9451000C9451000C9451000C945100FC
:100040000C9451000C9451000C9451000C945100EC
:100050000C9451000C9451000C9451000C945100DC
:100060000C9451000C94510011241FBECFEFD8E026
:10007000DEBFCDBF11E0A0E0B1E0E0E7F9E002C0F3
:1000800005900D92A432B107D9F721E0A4E2B1E0C6
:1000900001C01D92AA32B207E1F70E948F010C94B1
:1000A000B6040C940000CF92DF92EF92FF920F9370
:1000B0001F93CF93DF9300D000D01F92CDB7DEB750
:1000C0006C01FE01319685E0DF011D928A95E9F70A
:1000D000569A5E9A87EA91E60197F1F700C0000010
:1000E0005E98A3E9B1E11197F1F700C000005E9AB4
:1000F0005698BDE0BA95F1F700004E9B02C08FEF15
:100100004DC08AE18A95F1F700C04E9BF8CF9AE185
:100110009A95F1F700C08E010A5F1F4FEE24E39419
:10012000F12C27E030E090E049EC50E04E9904C01B
:1001300041505109D9F7E3CFAAE0AA95F1F74E9BB8
:1001400007C0A701022E01C0440F0A94EAF7942BBE
:1001500049EC50E04E9B04C041505109D9F7CFCF34
:100160002150310908F791930E171F07D1F6569ABF
:100170005E9AE7EAF1E63197F1F700C00000898165
:100180003B819A81980F930F2C81920F2D819213AE
:10019000B6CFD6013C93FB01808380E00F900F9097
:1001A0000F900F900F90DF91CF911F910F91FF90C3
:1001B000EF90DF90CF900895CF93DF931F92CDB74C
:1001C000DEB71982BE016F5F7F4F0E9453000F9010
:1001D000DF91CF910895611102C02D9801C02D9A31
:1001E00095B1907F282F22952F70922B95B995E08D
:1001F0009A95F1F700002C9A95E09A95F1F7000096
:100200002C9890EF9A95F1F795B1907F282F2F7049
:10021000922B95B995E09A95F1F700002C9A95E00C
:100220009A95F1F700002C9890EF9A95F1F76111EB
:1002300008C0843030F48FE39FE10197F1F700C0EC
:10024000000008952D982C982FEF89EF90E0215011
:1002500080409040E1F700C0000085B1807F83605E
:1002600085B925E02A95F1F700002C9A85E08A955A
:10027000F1F700002C9890EF9A95F1F78FE19EE44A
:100280000197F1F700C0000095E09A95F1F70000A2
:100290002C9A25E02A95F1F700002C9880EF8A959A
:1002A000F1F78FE193E00197F1F700C0000095E0CE
:1002B0009A95F1F700002C9A25E02A95F1F70000B5
:1002C0002C9880EF8A95F1F785B1807F826085B99F
:1002D00095E09A95F1F700002C9A25E02A95F1F720
:1002E00000002C9880EF8A95F1F760E088E20E9488
:1002F000EB0060E088E00E94EB0060E081E00E949B
:10030000EB0060E08CE00E94EB0060E080E80C9481
:10031000EB0061E00E94EB0080E090E008958FEF39
:1003200084B90E94220180E091E09093270180939C
:10033000260160E080E80E94EB008EE091E09F9350
:100340008F930E94D8012FEF89E698E121508040D9
:100350009040E1F700C00000C0E00C2F0C2E000C14
:10036000110BC8010E94DC0060E080EC0E94EB00F1
:100370001F93CF938EE191E09F938F930E94D801BA
:100380000F900F900F900F900F900F9060E080E80B
:100390000E94EB0060E080EC0E94EB002FEF87EA08
:1003A00091E6215080409040E1F700C00000EECF80
:1003B000A0E0B0E0EEEDF1E00C948F04AE014B5FF5
:1003C0005F4FFA0161917191AF0180912601909187
:1003D00027010E94EE01E2E00C94AB04ABE0B0E038
:1003E000E4EFF1E00C947F046C017B018A01FC01D5
:1003F00017821682838181FFCCC1CE0101963C0118
:10040000F6019381F70193FD859193FF81917F011F
:10041000882309F4BAC1853239F493FD859193FF9D
:1004200081917F01853229F4B60190E00E94E503B5
:10043000E7CF912C212C312CFFE1F315D8F08B3232
:1004400079F038F4803279F08332A1F4232D2061E1
:100450001DC08D3261F0803369F4232D216016C0F8
:10046000832D8260382EE32DE4603E2E2AC0F32DCA
:10047000F8601DC037FC2DC020ED280F2A3040F059
:100480008E32B9F436FC81C1232D2064322E19C07E
:1004900036FE06C08AE0989E200D1124922E11C0CF
:1004A000EAE02E9E200D1124222EF32DF0623F2E25
:1004B00008C08C3621F4832D8068382E02C088361F
:1004C00041F4F70193FD859193FF81917F018111A3
:1004D000B3CF982F9F7D9554933028F40C5F1F4F16
:1004E0009FE399830DC0833631F0833771F08335F4
:1004F00009F059C021C0F801808189830E5F1F4F28
:1005000088248394912C530113C02801F2E04F0EEC
:10051000511CF801A080B18036FE03C0692D70E047
:1005200002C06FEF7FEFC5010E94DA034C01820128
:10053000F32DFF773F2E16C0280122E0420E511CFA
:10054000F801A080B18036FE03C0692D70E002C0C2
:100550006FEF7FEFC5010E94CF034C01F32DF068D0
:100560003F2E820133FC1BC0822D90E08816990635
:10057000B0F4B60180E290E00E94E5032A94F4CF43
:10058000F50137FC859137FE81915F01B60190E05E
:100590000E94E50321102A9421E0821A9108811417
:1005A000910471F7E8C0843611F0893641F5F801FD
:1005B00037FE07C060817181828193810C5F1F4F7C
:1005C00008C060817181072E000C880B990B0E5FAB
:1005D0001F4FF32DFF763F2E97FF09C09095809512
:1005E000709561957F4F8F4F9F4FF0683F2E2AE0A7
:1005F00030E0A3010E942104882E861845C085376B
:1006000031F4232D2F7EB22E2AE030E025C0932D29
:10061000997FB92E8F36C1F018F4883579F0B5C0BE
:10062000803719F0883721F0B0C0E92FE061BE2E85
:10063000B4FE0DC0FB2DF460BF2E09C034FE0AC00D
:10064000292F2660B22E06C028E030E005C020E148
:1006500030E002C020E132E0F801B7FE07C060815F
:100660007181828193810C5F1F4F06C0608171810F
:1006700080E090E00E5F1F4FA3010E942104882EAE
:100680008618FB2DFF773F2E36FE0DC0232D2E7FC3
:10069000A22E891458F434FE0BC032FC09C0832DFD
:1006A0008E7EA82E05C0B82CA32C03C0B82C01C088
:1006B000B92CA4FE0FC0FE01E80DF11D808180332E
:1006C00021F49A2D997EA92E09C0A2FE06C0B394EA
:1006D000B39404C08A2D867809F0B394A3FC11C0AA
:1006E000A0FE06C0B21488F4280C922C9B180EC0F1
:1006F000B21460F4B60180E290E00E94E503B39486
:10070000F7CFB21418F42B1802C0982C212CA4FE99
:1007100010C0B60180E390E00E94E503A2FE17C07E
:10072000A1FC03C088E790E002C088E590E0B60134
:100730000CC08A2D867859F0A1FE02C08BE201C060
:1007400080E2A7FC8DE2B60190E00E94E5038914E7
:1007500038F4B60180E390E00E94E5039A94F7CF65
:100760008A94F301E80DF11D8081B60190E00E94AA
:10077000E5038110F5CF222009F442CEB60180E2D4
:1007800090E00E94E5032A94F6CFF60186819781D6
:1007900002C08FEF9FEF2B96E2E10C949B04FC01CB
:1007A0000590615070400110D8F7809590958E0F9C
:1007B0009F1F0895FC016150704001900110D8F70F
:1007C000809590958E0F9F1F08950F931F93CF9341
:1007D000DF93FB01238121FD03C08FEF9FEF2CC02E
:1007E00022FF16C046815781248135814217530765
:1007F00044F4A081B1819D012F5F3F4F318320835D
:100800008C93268137812F5F3F4F3783268314C017
:100810008B01EC01FB010084F185E02D0995892B0A
:10082000E1F6D80116968D919C911797019617962F
:100830009C938E931697CE01DF91CF911F910F91CC
:100840000895FA01AA27283051F1203181F1E89466
:100850006F936E7F6E5F7F4F8F4F9F4FAF4FB1E0B3
:100860003ED0B4E03CD0670F781F891F9A1FA11DAE
:10087000680F791F8A1F911DA11D6A0F711D811DAF
:10088000911DA11D20D009F468943F912AE0269F74
:1008900011243019305D3193DEF6CF010895462FD3
:1008A0004770405D4193B3E00FD0C9F7F6CF462FB4
:1008B0004F70405D4A3318F0495D31FD405241931D
:1008C00002D0A9F7EACFB4E0A695979587957795DA
:1008D0006795BA95C9F700976105710508959B0161
:1008E000AC010A2E06945795479537952795BA95EA
:1008F000C9F7620F731F841F951FA01D08952F92C3
:100900003F924F925F926F927F928F929F92AF929F
:10091000BF92CF92DF92EF92FF920F931F93CF93EC
:10092000DF93CDB7DEB7CA1BDB0B0FB6F894DEBF83
:100930000FBECDBF09942A88398848885F846E84A9
:100940007D848C849B84AA84B984C884DF80EE80F3
:10095000FD800C811B81AA81B981CE0FD11D0FB6FC
:10096000F894DEBF0FBECDBFED010895F894FFCF20
:100970000000000200000000890100000000496E34
:10098000696369616C697A616E646F2E2E00312033
:0409900025640000DA
:00000001FF
