S012000076657273616F5F6769742E73726563DF
S11300000C9434000C9451000C9451000C94510045
S11300100C9451000C9451000C9451000C94510018
S11300200C9451000C9451000C9451000C94510008
S11300300C9451000C9451000C9451000C945100F8
S11300400C9451000C9451000C9451000C945100E8
S11300500C9451000C9451000C9451000C945100D8
S11300600C9451000C94510011241FBECFEFD8E022
S1130070DEBFCDBF11E0A0E0B1E0E2EEF8E002C0E7
S113008005900D92A234B107D9F721E0A2E4B1E0C2
S113009001C01D92A834B207E1F70E94F7000C9446
S11300A06F040C940000611102C05D9801C05D9A58
S11300B09BB1907F282F22952F70922B9BB995E0AE
S11300C09A95F1F700005C9A95E09A95F1F7000093
S11300D05C9890EF9A95F1F79BB1907F282F2F7041
S11300E0922B9BB995E09A95F1F700005C9A95E004
S11300F09A95F1F700005C9890EF9A95F1F76111E9
S113010008C0843030F48FE39FE10197F1F700C019
S1130110000008955D985C982FEF89EF90E02150DE
S113012080409040E1F700C000008BB1807F836085
S11301308BB925E02A95F1F700005C9A85E08A9551
S1130140F1F700005C9890EF9A95F1F78FE19EE447
S11301500197F1F700C0000095E09A95F1F70000CF
S11301605C9A25E02A95F1F700005C9880EF8A9567
S1130170F1F78FE193E00197F1F700C0000095E0FB
S11301809A95F1F700005C9A25E02A95F1F70000B2
S11301905C9880EF8A95F1F78BB1807F82608BB990
S11301A095E09A95F1F700005C9A25E02A95F1F71D
S11301B000005C9880EF8A95F1F760E088E20E9485
S11301C0530060E088E00E94530060E081E00E94F8
S11301D0530060E08CE00E94530060E080E80C94DF
S11301E0530061E00E94530080E090E00895CF93B3
S11301F0DF9300D000D0CDB7DEB78FEF8AB90E946D
S11302008A0080E091E0909345018093440160E08E
S113021080E80E9453008EE091E09F938F930E94A8
S113022091012FEF53ED80E3215050408040E1F7DE
S113023000C000000F900F905E0195E0A90EB11C64
S1130240CC24C394D12C9EE1E92E91E0F92E05E350
S113025011E0239A2B982FE75DEE80E02150504067
S11302608040E1F700C000002B9A23981B99FECF31
S11302701B9BFECFFE01319628E030E0422F1B9BF2
S1130280FECF80E090E01B9B06C0019655E05A9596
S1130290F1F70000F8CFBC01655071096E307105AB
S11302A048F4C60101C0880F4A95EAF78095918108
S11302B089230AC044978E9740F4C60101C0880F71
S11302C04A95EAF79181892B818321503109B1F64E
S11302D03196EA15FB0581F660E080E80E94530040
S11302E08A811F928F93FF92EF920E94910160E0A6
S11302F080EC0E9453008C811F928F931F930F9365
S11303000E9491018FEF93EC29E0815090402040AE
S1130310E1F700C000000FB6F894DEBF0FBECDBFFA
S113032098CFA0E0B0E0E7E9F1E00C944804AE0116
S11303304B5F5F4FFA0161917191AF01809144016C
S1130340909145010E94A701E2E00C946404ABE0A3
S1130350B0E0EDEAF1E00C9438046C017B018A0111
S1130360FC0117821682838181FFCCC1CE010196E4
S11303703C01F6019381F70193FD859193FF8191EF
S11303807F01882309F4BAC1853239F493FD85913C
S113039093FF81917F01853229F4B60190E00E9498
S11303A09E03E7CF912C212C312CFFE1F315D8F0DB
S11303B08B3279F038F4803279F08332A1F4232D32
S11303C020611DC08D3261F0803369F4232D2160DA
S11303D016C0832D8260382EE32DE4603E2E2AC0A1
S11303E0F32DF8601DC037FC2DC020ED280F2A30F6
S11303F040F08E32B9F436FC81C1232D2064322EB4
S113040019C036FE06C08AE0989E200D1124922E53
S113041011C0EAE02E9E200D1124222EF32DF0624D
S11304203F2E08C08C3621F4832D8068382E02C0FC
S1130430883641F4F70193FD859193FF81917F0103
S11304408111B3CF982F9F7D9554933028F40C5F7E
S11304501F4F9FE399830DC0833631F0833771F0CA
S1130460833509F059C021C0F801808189830E5F6A
S11304701F4F88248394912C530113C02801F2E068
S11304804F0E511CF801A080B18036FE03C0692DC7
S113049070E002C06FEF7FEFC5010E9493034C012F
S11304A08201F32DFF773F2E16C0280122E0420E71
S11304B0511CF801A080B18036FE03C0692D70E0A4
S11304C002C06FEF7FEFC5010E9488034C01F32D3A
S11304D0F0683F2E820133FC1BC0822D90E0881609
S11304E09906B0F4B60180E290E00E949E032A943B
S11304F0F4CFF50137FC859137FE81915F01B60198
S113050090E00E949E0321102A9421E0821A91080F
S11305108114910471F7E8C0843611F0893641F5ED
S1130520F80137FE07C060817181828193810C5F7D
S11305301F4F08C060817181072E000C880B990B36
S11305400E5F1F4FF32DFF763F2E97FF09C0909546
S11305508095709561957F4F8F4F9F4FF0683F2E28
S11305602AE030E0A3010E94DA03882E861845C0F1
S1130570853731F4232D2F7EB22E2AE030E025C0BA
S1130580932D997FB92E8F36C1F018F4883579F000
S1130590B5C0803719F0883721F0B0C0E92FE06189
S11305A0BE2EB4FE0DC0FB2DF460BF2E09C034FE78
S11305B00AC0292F2660B22E06C028E030E005C00C
S11305C020E130E002C020E132E0F801B7FE07C0CC
S11305D060817181828193810C5F1F4F06C06081AD
S11305E0718180E090E00E5F1F4FA3010E94DA0347
S11305F0882E8618FB2DFF773F2E36FE0DC0232D47
S11306002E7FA22E891458F434FE0BC032FC09C08C
S1130610832D8E7EA82E05C0B82CA32C03C0B82C25
S113062001C0B92CA4FE0FC0FE01E80DF11D8081AC
S1130630803321F49A2D997EA92E09C0A2FE06C00A
S1130640B394B39404C08A2D867809F0B394A3FCC0
S113065011C0A0FE06C0B21488F4280C922C9B187A
S11306600EC0B21460F4B60180E290E00E949E03D2
S1130670B394F7CFB21418F42B1802C0982C212C81
S1130680A4FE10C0B60180E390E00E949E03A2FE87
S113069017C0A1FC03C088E790E002C088E590E0A1
S11306A0B6010CC08A2D867859F0A1FE02C08BE2F7
S11306B001C080E2A7FC8DE2B60190E00E949E0397
S11306C0891438F4B60180E390E00E949E039A9462
S11306D0F7CF8A94F301E80DF11D8081B60190E013
S11306E00E949E038110F5CF222009F442CEB60168
S11306F080E290E00E949E032A94F6CFF601868160
S1130700978102C08FEF9FEF2B96E2E10C94540483
S1130710FC010590615070400110D8F780959095C8
S11307208E0F9F1F0895FC016150704001900110CD
S1130730D8F7809590958E0F9F1F08950F931F9360
S1130740CF93DF93FB01238121FD03C08FEF9FEF44
S11307502CC022FF16C0468157812481358142175F
S1130760530744F4A081B1819D012F5F3F4F318332
S113077020838C93268137812F5F3F4F37832683D5
S113078014C08B01EC01FB010084F185E02D099577
S1130790892BE1F6D80116968D919C9117970196B5
S11307A017969C938E931697CE01DF91CF911F914C
S11307B00F910895FA01AA27283051F1203181F1CF
S11307C0E8946F936E7F6E5F7F4F8F4F9F4FAF4F55
S11307D0B1E03ED0B4E03CD0670F781F891F9A1F68
S11307E0A11D680F791F8A1F911DA11D6A0F711D1C
S11307F0811D911DA11D20D009F468943F912AE028
S1130800269F11243019305D3193DEF6CF0108950F
S1130810462F4770405D4193B3E00FD0C9F7F6CF40
S1130820462F4F70405D4A3318F0495D31FD405208
S1130830419302D0A9F7EACFB4E0A695979587959E
S113084077956795BA95C9F700976105710508957D
S11308509B01AC010A2E0694579547953795279529
S1130860BA95C9F7620F731F841F951FA01D0895C1
S11308702F923F924F925F926F927F928F929F92AC
S1130880AF92BF92CF92DF92EF92FF920F931F939A
S1130890CF93DF93CDB7DEB7CA1BDB0B0FB6F8944B
S11308A0DEBF0FBECDBF09942A88398848885F848B
S11308B06E847D848C849B84AA84B984C884DF80FC
S11308C0EE80FD800C811B81AA81B981CE0FD11DE0
S11308D00FB6F894DEBF0FBECDBFED010895F894B6
S10508E0FFCF44
S11308E20000000200000000F10000000000496E58
S11308F2696369616C697A616E646F2E2E00556D4D
S113090269643A20256425252020202020202020E7
S1130912202020200054656D703A2025642A43204B
S10509220000CF
S9030000FC
