S012000076657273616F5F6769742E73726563DF
S11300000C9434000C9451000C9451000C94510045
S11300100C9451000C9451000C9451000C94510018
S11300200C9451000C9451000C9451000C94510008
S11300300C9451000C9451000C9451000C945100F8
S11300400C9451000C9451000C9451000C945100E8
S11300500C9451000C9451000C9451000C945100D8
S11300600C9451000C94510011241FBECFEFD8E022
S1130070DEBFCDBF11E0A0E0B1E0E0ECFBE002C0E8
S113008005900D92A831B107D9F721E0A8E1B1E0BC
S113009001C01D92AE31B207E1F70E94BB010C947E
S11300A0DE050C940000CF92DF92EF92FF920F9343
S11300B01F93CF93DF9300D000D01F92CDB7DEB74C
S11300C08C017B01FE01319685E0DF011D928A954A
S11300D0E9F7389A409A87EA91E60197F1F700C068
S11300E00000409896EA9A95F1F700C0409A389833
S11300F0ADE0AA95F1F70000309B02C08FEF87C0F6
S1130100BAE1BA95F1F700C0309BF8CF8AE18A953D
S1130110F1F700C0BE016A5F7F4FA1E0B0E027E0C5
S113012030E080E049EC50E0309904C0415051097E
S1130130D9F7E4CF9AE09A95F1F7309B07C0AD0167
S1130140022E01C0440F0A94EAF7842B49EC50E0D4
S1130150309B04C041505109D9F7D0CF2150310907
S113016008F781936E177F07D1F6389A409AA7EA69
S1130170B1E61197F1F700C0000069817A81D62EAB
S1130180C72E6B817C8176276727762799818A81A0
S1130190980F8B81980F2C81920F8D819813AECF7D
S11301A077FF14C07F7780E090E00E94720220E025
S11301B030E040E251E40E940002DC01CB01B0587F
S11301C0F80180839183A283B38310C080E090E020
S11301D00E94720220E030E040E251E40E940002FA
S11301E0D8016D937D938D939C931397B60180E012
S11301F090E00E94720220E030E040E251E40E946C
S11302000002F701608371838283938380E00F90FF
S11302100F900F900F900F90DF91CF911F910F913E
S1130220FF90EF90DF90CF9008950C9453006111EC
S113023002C02D9801C02D9A95B1907F282F229548
S11302402F70922B95B995E09A95F1F700002C9AAE
S113025095E09A95F1F700002C9890EF9A95F1F7B4
S113026095B1907F282F2F70922B95B995E09A9590
S1130270F1F700002C9A95E09A95F1F700002C987C
S113028090EF9A95F1F7611108C0843030F48FE350
S11302909FE10197F1F700C0000008952D982C9874
S11302A02FEF89EF90E0215080409040E1F700C0AB
S11302B0000085B1807F836085B925E02A95F1F738
S11302C000002C9A85E08A95F1F700002C9890EFB5
S11302D09A95F1F78FE19EE40197F1F700C00000D1
S11302E095E09A95F1F700002C9A25E02A95F1F70C
S11302F000002C9880EF8A95F1F78FE193E0019745
S1130300F1F700C0000095E09A95F1F700002C9AEF
S113031025E02A95F1F700002C9880EF8A95F1F7F3
S113032085B1807F826085B995E09A95F1F70000E8
S11303302C9A25E02A95F1F700002C9880EF8A95F5
S1130340F1F760E088E20E94170160E088E00E9413
S1130350170160E081E00E94170160E08CE00E94D8
S1130360170160E080E80C94170161E00E94170116
S113037080E090E00895CF93DF93CDB7DEB7289760
S11303800FB6F894DEBF0FBECDBF8FEF84B90E94C5
S11303904E0180E091E090931B0180931A011D822D
S11303A01E821F82188619821A821B821C8200E018
S11303B010E08EE0E82E81E0F82EBE016F5F7F4FE3
S11303C0CE0105960E9415018F3F81F40F5F1F4FE8
S11303D060E080E80E9417011F930F93FF92EF9251
S11303E00E9400030F900F900F900F902FEF8DE35A
S11303F099E4215080409040E1F700C00000DDCF37
S11304000E9414020C94C6020E94BF0258F00E947B
S1130410B80240F029F45F3F29F00C94AF02511167
S11304200C94FA020C94B5020E94D70268F3992343
S1130430B1F3552391F3951B550BBB27AA276217DC
S11304407307840738F09F5F5F4F220F331F441FE9
S1130450AA1FA9F335D00E2E3AF0E0E832D091501D
S11304605040E695001CCAF72BD0FE2F29D0660F0A
S1130470771F881FBB1F261737074807AB07B0E84D
S113048009F0BB0B802DBF01FF2793585F4F3AF053
S11304909E3F510578F00C94AF020C94FA025F3F32
S11304A0E4F3983ED4F3869577956795B795F795D9
S11304B09F5FC9F7880F911D9695879597F90895C1
S11304C0E1E0660F771F881FBB1F6217730784075D
S11304D0BA0720F0621B730B840BBA0BEE1F88F76C
S11304E0E0950895E89409C097FB3EF490958095B3
S11304F0709561957F4F8F4F9F4F9923A9F0F92FE6
S113050096E9BB279395F695879577956795B79563
S1130510F111F8CFFAF4BB0F11F460FF1BC06F5F49
S11305207F4F8F4F9F4F16C0882311F096E911C05B
S1130530772321F09EE8872F762F05C0662371F07C
S113054096E8862F70E060E02AF09A95660F771F90
S1130550881FDAF7880F9695879597F9089597F984
S11305609F6780E870E060E008959FEF80EC089555
S113057000240A941616170618060906089500247E
S11305800A9412161306140605060895092E0394F8
S1130590000C11F4882352F0BB0F40F4BF2B11F46C
S11305A060FF04C06F5F7F4F8F4F9F4F089557FDCB
S11305B09058440F551F59F05F3F71F04795880FCD
S11305C097FB991F61F09F3F79F087950895121664
S11305D013061406551FF2CF4695F1DF08C0161610
S11305E017061806991FF1CF8695710561050894C1
S11305F00895E894BB2766277727CB0197F90895D8
S1130600A0E0B0E0E6E0F3E00C94B705AE014B5F88
S11306105F4FFA0161917191AF0180911A0190913C
S11306201B010E941603E2E00C94D305ABE0B0E09A
S1130630ECE1F3E00C94A7056C017B018A01FC0159
S113064017821682838181FFCCC1CE0101963C01C1
S1130650F6019381F70193FD859193FF81917F01C9
S1130660882309F4BAC1853239F493FD859193FF47
S113067081917F01853229F4B60190E00E940D0535
S1130680E7CF912C212C312CFFE1F315D8F08B32DC
S113069079F038F4803279F08332A1F4232D20618B
S11306A01DC08D3261F0803369F4232D216016C0A2
S11306B0832D8260382EE32DE4603E2E2AC0F32D74
S11306C0F8601DC037FC2DC020ED280F2A3040F003
S11306D08E32B9F436FC81C1232D2064322E19C028
S11306E036FE06C08AE0989E200D1124922E11C079
S11306F0EAE02E9E200D1124222EF32DF0623F2ECF
S113070008C08C3621F4832D8068382E02C08836C8
S113071041F4F70193FD859193FF81917F0181114C
S1130720B3CF982F9F7D9554933028F40C5F1F4FBF
S11307309FE399830DC0833631F0833771F083359D
S113074009F059C021C0F801808189830E5F1F4FD1
S113075088248394912C530113C02801F2E04F0E96
S1130760511CF801A080B18036FE03C0692D70E0F1
S113077002C06FEF7FEFC5010E9402054C018201A8
S1130780F32DFF773F2E16C0280122E0420E511CA4
S1130790F801A080B18036FE03C0692D70E002C06C
S11307A06FEF7FEFC5010E94F7044C01F32DF06851
S11307B03F2E820133FC1BC0822D90E088169906DF
S11307C0B0F4B60180E290E00E940D052A94F4CFC3
S11307D0F50137FC859137FE81915F01B60190E008
S11307E00E940D0521102A9421E0821A9108811497
S11307F0910471F7E8C0843611F0893641F5F801A7
S113080037FE07C060817181828193810C5F1F4F25
S113081008C060817181072E000C880B990B0E5F54
S11308201F4FF32DFF763F2E97FF09C090958095BB
S1130830709561957F4F8F4F9F4FF0683F2E2AE050
S113084030E0A3010E944905882E861845C08537EB
S113085031F4232D2F7EB22E2AE030E025C0932DD3
S1130860997FB92E8F36C1F018F4883579F0B5C068
S1130870803719F0883721F0B0C0E92FE061BE2E2F
S1130880B4FE0DC0FB2DF460BF2E09C034FE0AC0B7
S1130890292F2660B22E06C028E030E005C020E1F2
S11308A030E002C020E132E0F801B7FE07C0608109
S11308B07181828193810C5F1F4F06C060817181B9
S11308C080E090E00E5F1F4FA3010E944905882E2F
S11308D08618FB2DFF773F2E36FE0DC0232D2E7F6D
S11308E0A22E891458F434FE0BC032FC09C0832DA7
S11308F08E7EA82E05C0B82CA32C03C0B82C01C032
S1130900B92CA4FE0FC0FE01E80DF11D80818033D7
S113091021F49A2D997EA92E09C0A2FE06C0B39493
S1130920B39404C08A2D867809F0B394A3FC11C053
S1130930A0FE06C0B21488F4280C922C9B180EC09A
S1130940B21460F4B60180E290E00E940D05B39405
S1130950F7CFB21418F42B1802C0982C212CA4FE43
S113096010C0B60180E390E00E940D05A2FE17C0FE
S1130970A1FC03C088E790E002C088E590E0B601DE
S11309800CC08A2D867859F0A1FE02C08BE201C00A
S113099080E2A7FC8DE2B60190E00E940D05891467
S11309A038F4B60180E390E00E940D059A94F7CFE5
S11309B08A94F301E80DF11D8081B60190E00E9454
S11309C00D058110F5CF222009F442CEB60180E254
S11309D090E00E940D052A94F6CFF6018681978156
S11309E002C08FEF9FEF2B96E2E10C94C305FC014C
S11309F00590615070400110D8F7809590958E0F46
S1130A009F1F0895FC016150704001900110D8F7B8
S1130A10809590958E0F9F1F08950F931F93CF93EA
S1130A20DF93FB01238121FD03C08FEF9FEF2CC0D7
S1130A3022FF16C04681578124813581421753070E
S1130A4044F4A081B1819D012F5F3F4F3183208306
S1130A508C93268137812F5F3F4F3783268314C0C1
S1130A608B01EC01FB010084F185E02D0995892BB4
S1130A70E1F6D80116968D919C91179701961796D9
S1130A809C938E931697CE01DF91CF911F910F9176
S1130A900895FA01AA27283051F1203181F1E89410
S1130AA06F936E7F6E5F7F4F8F4F9F4FAF4FB1E05D
S1130AB03ED0B4E03CD0670F781F891F9A1FA11D58
S1130AC0680F791F8A1F911DA11D6A0F711D811D59
S1130AD0911DA11D20D009F468943F912AE0269F1E
S1130AE011243019305D3193DEF6CF010895462F7D
S1130AF04770405D4193B3E00FD0C9F7F6CF462F5E
S1130B004F70405D4A3318F0495D31FD40524193C6
S1130B1002D0A9F7EACFB4E0A69597958795779583
S1130B206795BA95C9F700976105710508959B010A
S1130B30AC010A2E06945795479537952795BA9593
S1130B40C9F7620F731F841F951FA01D08952F926C
S1130B503F924F925F926F927F928F929F92AF9249
S1130B60BF92CF92DF92EF92FF920F931F93CF9396
S1130B70DF93CDB7DEB7CA1BDB0B0FB6F894DEBF2D
S1130B800FBECDBF09942A88398848885F846E8453
S1130B907D848C849B84AA84B984C884DF80EE809D
S1130BA0FD800C811B81AA81B981CE0FD11D0FB6A6
S1130BB0F894DEBF0FBECDBFED010895F894FFCFCA
S1130BC00000000200000000B50100000000657292
S10B0BD0726F7220256400001D
S9030000FC
