:100000000C9434000C9451000C9451000C94510049
:100010000C9451000C9451000C9451000C9451001C
:100020000C9451000C9451000C9451000C9451000C
:100030000C9451000C9451000C9451000C945100FC
:100040000C9451000C9451000C9451000C945100EC
:100050000C9451000C9451000C9451000C945100DC
:100060000C9451000C94510011241FBECFEFD8E026
:10007000DEBFCDBF11E0A0E0B1E0EAE5F9E002C0EB
:1000800005900D92A231B107D9F721E0A2E1B1E0CC
:1000900001C01D92A831B207E1F70E94F7000C944D
:1000A000AB040C940000611102C05D9801C05D9A20
:1000B0009BB1907F282F22952F70922B9BB995E0B2
:1000C0009A95F1F700005C9A95E09A95F1F7000097
:1000D0005C9890EF9A95F1F79BB1907F282F2F7045
:1000E000922B9BB995E09A95F1F700005C9A95E008
:1000F0009A95F1F700005C9890EF9A95F1F76111ED
:1001000008C0843030F48FE39FE10197F1F700C01D
:10011000000008955D985C982FEF89EF90E02150E2
:1001200080409040E1F700C000008BB1807F836089
:100130008BB925E02A95F1F700005C9A85E08A9555
:10014000F1F700005C9890EF9A95F1F78FE19EE44B
:100150000197F1F700C0000095E09A95F1F70000D3
:100160005C9A25E02A95F1F700005C9880EF8A956B
:10017000F1F78FE193E00197F1F700C0000095E0FF
:100180009A95F1F700005C9A25E02A95F1F70000B6
:100190005C9880EF8A95F1F78BB1807F82608BB994
:1001A00095E09A95F1F700005C9A25E02A95F1F721
:1001B00000005C9880EF8A95F1F760E088E20E9489
:1001C000530060E088E00E94530060E081E00E94FC
:1001D000530060E08CE00E94530060E080E80C94E3
:1001E000530061E00E94530080E090E00895CF93B7
:1001F000DF931F92CDB7DEB78FEF8AB90E948A00D6
:1002000080E091E090931501809314010E944F01CA
:100210000E942D010E946C010E946C010E946C01E1
:100220000E946C0160E080E80E9453000EE011E043
:100230000E946C0142E050E0BE016F5F7F4F90E092
:100240000E948D019F938F931F930F930E94BD0176
:100250000F900F900F900F90EBCF239A2B982FEFCA
:1002600080EE90E0215080409040E1F700C0000017
:100270002B9A25ED2A95F1F70000239887ED90E061
:100280000197F1F700C000001B9B07C08FE391E0CE
:100290000197F1F700C00000089580E00895239AC7
:1002A0002B9A8FE39CE90197F1F700C00000239897
:1002B0000895239A2B988AE08A95F1F700C0239835
:1002C000E0E5EA95F1F783B1E7ECF0E03197F1F77B
:1002D00000C0000088700895EF92FF921F93CF93A3
:1002E000DF93C0E0D0E010E0EE24E394F12C0E9414
:1002F0005901882339F0C7010C2E01C0880F0A94D8
:10030000EAF7182B2196C830D10589F7812FDF91A4
:10031000CF911F91FF90EF9008954532510520F441
:10032000423010F00C949801FB011082CB0108952B
:10033000BB274A3031F4992322F4BDE29095819590
:100340009F4F0C94A401BB27FB015527AA27880FB8
:10035000991FAA1FA41710F0A41B83955051B9F739
:10036000A05DAA3308F0A95DA193009779F7B111B8
:10037000B1931192CB010C94CA03A0E0B0E0E3EC7E
:10038000F1E00C948404AE014B5F5F4FFA01619180
:100390007191AF0180911401909115010E94D301D8
:1003A000E2E00C94A004ABE0B0E0E9EDF1E00C94E5
:1003B00074046C017B018A01FC011782168283811F
:1003C00081FFCCC1CE0101963C01F6019381F7017A
:1003D00093FD859193FF81917F01882309F4BAC130
:1003E000853239F493FD859193FF81917F018532A8
:1003F00029F4B60190E00E94DA03E7CF912C212C7A
:10040000312CFFE1F315D8F08B3279F038F48032DB
:1004100079F08332A1F4232D20611DC08D3261F06B
:10042000803369F4232D216016C0832D8260382E1D
:10043000E32DE4603E2E2AC0F32DF8601DC037FC8A
:100440002DC020ED280F2A3040F08E32B9F436FC52
:1004500081C1232D2064322E19C036FE06C08AE0E9
:10046000989E200D1124922E11C0EAE02E9E200DA0
:100470001124222EF32DF0623F2E08C08C3621F479
:10048000832D8068382E02C0883641F4F70193FD31
:10049000859193FF81917F018111B3CF982F9F7D2B
:1004A0009554933028F40C5F1F4F9FE399830DC040
:1004B000833631F0833771F0833509F059C021C09C
:1004C000F801808189830E5F1F4F88248394912CCB
:1004D000530113C02801F2E04F0E511CF801A08017
:1004E000B18036FE03C0692D70E002C06FEF7FEF70
:1004F000C5010E94BF034C018201F32DFF773F2EFF
:1005000016C0280122E0420E511CF801A080B180E3
:1005100036FE03C0692D70E002C06FEF7FEFC501AA
:100520000E94B4034C01F32DF0683F2E820133FC8E
:100530001BC0822D90E088169906B0F4B60180E2C7
:1005400090E00E94DA032A94F4CFF50137FC8591FC
:1005500037FE81915F01B60190E00E94DA0321101D
:100560002A9421E0821A91088114910471F7E8C05D
:10057000843611F0893641F5F80137FE07C06081F5
:100580007181828193810C5F1F4F08C060817181EE
:10059000072E000C880B990B0E5F1F4FF32DFF7673
:1005A0003F2E97FF09C090958095709561957F4F7C
:1005B0008F4F9F4FF0683F2E2AE030E0A3010E944A
:1005C0001604882E861845C0853731F4232D2F7EDA
:1005D000B22E2AE030E025C0932D997FB92E8F36B8
:1005E000C1F018F4883579F0B5C0803719F0883734
:1005F00021F0B0C0E92FE061BE2EB4FE0DC0FB2D8E
:10060000F460BF2E09C034FE0AC0292F2660B22E26
:1006100006C028E030E005C020E130E002C020E163
:1006200032E0F801B7FE07C0608171818281938159
:100630000C5F1F4F06C06081718180E090E00E5F0B
:100640001F4FA3010E941604882E8618FB2DFF77EA
:100650003F2E36FE0DC0232D2E7FA22E891458F476
:1006600034FE0BC032FC09C0832D8E7EA82E05C03F
:10067000B82CA32C03C0B82C01C0B92CA4FE0FC009
:10068000FE01E80DF11D8081803321F49A2D997EC1
:10069000A92E09C0A2FE06C0B394B39404C08A2D4B
:1006A000867809F0B394A3FC11C0A0FE06C0B21472
:1006B00088F4280C922C9B180EC0B21460F4B6017A
:1006C00080E290E00E94DA03B394F7CFB21418F4FA
:1006D0002B1802C0982C212CA4FE10C0B60180E378
:1006E00090E00E94DA03A2FE17C0A1FC03C088E7D5
:1006F00090E002C088E590E0B6010CC08A2D8678B3
:1007000059F0A1FE02C08BE201C080E2A7FC8DE29D
:10071000B60190E00E94DA03891438F4B60180E350
:1007200090E00E94DA039A94F7CF8A94F301E80DDF
:10073000F11D8081B60190E00E94DA038110F5CFAF
:10074000222009F442CEB60180E290E00E94DA0352
:100750002A94F6CFF6018681978102C08FEF9FEF32
:100760002B96E2E10C949004FC01059061507040DE
:100770000110D8F7809590958E0F9F1F0895FC016A
:100780006150704001900110D8F7809590958E0FC0
:100790009F1F0895DC01FC01672F71917723E1F71A
:1007A000329704C07C916D9370836291AE17BF073E
:1007B000C8F308950F931F93CF93DF93FB01238119
:1007C00021FD03C08FEF9FEF2CC022FF16C0468192
:1007D0005781248135814217530744F4A081B181A8
:1007E0009D012F5F3F4F318320838C93268137817A
:1007F0002F5F3F4F3783268314C08B01EC01FB0131
:100800000084F185E02D0995892BE1F6D801169633
:100810008D919C911797019617969C938E9316979E
:10082000CE01DF91CF911F910F910895FA01AA2770
:10083000283051F1203181F1E8946F936E7F6E5F23
:100840007F4F8F4F9F4FAF4FB1E03ED0B4E03CD0D1
:10085000670F781F891F9A1FA11D680F791F8A1FB4
:10086000911DA11D6A0F711D811D911DA11D20D01B
:1008700009F468943F912AE0269F11243019305DD5
:100880003193DEF6CF010895462F4770405D4193C6
:10089000B3E00FD0C9F7F6CF462F4F70405D4A3313
:1008A00018F0495D31FD4052419302D0A9F7EACFDB
:1008B000B4E0A6959795879577956795BA95C9F70A
:1008C00000976105710508959B01AC010A2E0694FD
:1008D0005795479537952795BA95C9F7620F731FB6
:1008E000841F951FA01D08952F923F924F925F92F3
:1008F0006F927F928F929F92AF92BF92CF92DF9230
:10090000EF92FF920F931F93CF93DF93CDB7DEB794
:10091000CA1BDB0B0FB6F894DEBF0FBECDBF099428
:100920002A88398848885F846E847D848C849B847F
:10093000AA84B984C884DF80EE80FD800C811B818D
:10094000AA81B981CE0FD11D0FB6F894DEBF0FBEBC
:0A095000CDBFED010895F894FFCF2C
:10095A000000000200000000F10000000000257302
:02096A0000008B
:00000001FF
